:101C000012C02CC02BC02AC029C028C027C026C0A3
:101C100025C024C023C022C021C020C01FC01EC0B8
:101C20001DC01CC01BC011241FBECFE5D4E0DEBF09
:101C3000CDBF10E0A0E6B0E0EEEEFFE102C00590FF
:101C40000D92A236B107D9F711E0A2E6B0E001C0CB
:101C50001D92AA36B107E1F74AD0C7C1D1CF5D9B2B
:101C6000FECF8CB90895CF92DF92EF92FF92C12CF4
:101C7000D12C76015F9913C08FEFC81AD80AE80AF1
:101C8000F80A81E0C81682E1D8068AE7E806F1047E
:101C900088F3E0916200F09163000995EBCF8CB17D
:101CA000FF90EF90DF90CF900895CF93DF93D82FE0
:101CB000C0E0CD1719F0D7DFCF5FFBCFDF91CF9119
:101CC0000895CF93C82FCFDF803239F484E1C7DF86
:101CD0008C2FC5DF80E1CF91C2CFCF910895C3DFB4
:101CE000803221F484E1BBDF80E1B9CF0895A5986B
:101CF000AD9A0000E0E0F0E0E491EF3F39F09D9B09
:101D000005C0E0916200F0916300099510BC83E387
:101D100089B988E18AB986E880BDBD9A10926801C8
:101D200040E220E030E0809168018031B8F488B36F
:101D3000842788BBC9010197F1F7809168018F5F03
:101D400080936801F0CF813369F08034F1F0813401
:101D500049F589DF8038F1F482E0B3DF84DF803336
:101D600091F724C080DF8032C9F784E178DF81E415
:101D700076DF86E574DF82E572DF80E270DF89E47A
:101D80006EDF83E56CDF80E513C16DDF863870F0B0
:101D90006ADF0CC0813811F481E0DFCF8238E9F4CA
:101DA00082E1DBCF823421F484E17FDF98DFD6CF7C
:101DB000853411F485E0F9CF90EB980F9330B0F3B0
:101DC000853539F450DF809364004DDF80936500E2
:101DD000EDCF863521F484E068DF80E0BECF843625
:101DE00009F090C040DF809367013DDF809366017A
:101DF000809169018E7F8093690135DF853429F4F4
:101E00008091690181608093690106E610E080910C
:101E100066019091670198012656304028173907CE
:101E200028F421DFF80181938F01F1CF1CDF80328C
:101E300009F094CF8091690180FF1FC006E610E091
:101E400080916601909167019801265630402817CD
:101E5000390708F055C0F80161918F018091640045
:101E600090916500B5D080916400909165000196D5
:101E70009093650080936400E3CFF894E199FECFDE
:101E80001127E0916400F0916500EE0FFF1FC6E698
:101E9000D0E0809166019091670180FF01C00196BA
:101EA000103051F422D003E000935700E8951DD084
:101EB00001E100935700E8950990199016D001E0D0
:101EC00000935700E8951395103258F011270DD064
:101ED00005E000935700E89508D001E10093570012
:101EE000E8953296029739F0DBCF009157000170E8
:101EF0000130D9F30895103011F00296E7CF112484
:101F000084E156C0843709F046C0ADDE8093670196
:101F1000AADE80936601A7DE90916901853421F4E1
:101F20009160909369010DC09E7F909369018091AB
:101F3000640090916500880F991F909365008093CD
:101F4000640091DE803209F009CF84E188DE00E090
:101F500010E080916601909167010817190748F514
:101F600020916901809164009091650020FF02C07A
:101F700027D004C021FD03C0FC01849170DE809154
:101F800064009091650001969093650080936400D1
:101F90000F5F1F4FDECF853779F465DE803209F0A1
:101FA000DDCE84E15CDE8EE15ADE83E958DE87E037
:101FB00056DE80E154DED2CE863709F0CFCE0DCF8B
:101FC000E199FECF9FBB8EBBE09A99278DB3089510
:101FD000262FE199FECF9FBB8EBB2DBB0FB6F89489
:0E1FE000E29AE19A0FBE01960895F894FFCFA1
:021FEE00800071
:0400000300001C00DD
:00000001FF
